:020000022000DC
:10700000000004205D730200B9730200BB7302002C
:10701000BD730200BF730200C173020000000000D4
:10702000000000000000000000000000C373020028
:10703000C573020000000000C7730200C97302009C
:10704000413F0300CB73020045500300CB730200A5
:10705000CB730200CB730200D94B0300CB73020049
:10706000CB730200CB730200CB730200CB73020020
:10707000CB73020015500300CB730200CB730200E8
:10708000CB730200D5420400CB730200CB73020025
:10709000CB730200CB73020085720300CB73020036
:1070A000CB730200CB730200CB730200CB730200E0
:1070B000CB730200CB730200000000000000000050
:1070C000CB730200CB730200CB730200CB730200C0
:1070D000CB730200CB730200CB730200CB730200B0
:1070E000CB730200CB730200B9BA030000000000AA
:1070F00000000000CB73020000000000CB73020010
:10710000000000000000000000000000000000007F
:10711000000000000000000000000000000000006F
:10712000000000000000000000000000000000005F
:10713000000000000000000000000000000000004F
:10714000000000000000000000000000000000003F
:10715000000000000000000000000000000000002F
:10716000000000000000000000000000000000001F
:10717000000000000000000000000000000000000F
:1071800000000000000000000000000000000000FF
:1071900000000000000000000000000000000000EF
:1071A00000000000000000000000000000000000DF
:1071B00000000000000000000000000000000000CF
:1071C00000000000000000000000000000000000BF
:1071D00000000000000000000000000000000000AF
:1071E000000000000000000000000000000000009F
:1071F000000000000000000000000000000000008F
:10720000354936480A1A02D0072291438D4634493F
:1072100034480A1A06D00722914381F309880222D2
:1072200082F3148830483149314A00F044F831483B
:107230003149324A00F03FF831483249324A00F0D1
:107240003AF832483249334A00F035F83248334987
:10725000334A00F030F833483349344A00F02BF811
:1072600033483449344A00F026F83448344900227F
:1072700000F02CF833483449002200F027F8334856
:107280003349091A082902DB002202604160314AB1
:1072900090471F481F49884205D00268043003B454
:1072A000904703BCF7E700208646EC46002000210B
:1072B000294A9047FEE7884207D0521A05D0037842
:1072C00001300B700131013AF9D17047884202D088
:1072D00002700130FAE770470000042000E003204C
:1072E000000004200000042004D8040074220020C0
:1072F00074230020D0730200D07302005262040095
:1073000004D8040074220020742200207064040059
:10731000706404007064040070640400706404000D
:1073200070640400706404007064040002D80400F7
:1073300004D9040074230020742300207423002047
:1073400048690020486900204869002048690020F9
:1073500048790020857302005D5E040000F036B8B5
:107360000F484FF00701884385460E4880470E4876
:10737000016841F470010160BFF34F8FBFF36F8F5D
:10738000FFF73EBF09480A490A4A884207D0521A05
:1073900005D0037801300B700131013AF9D1704703
:1073A000000004209187020088ED00E05C64040086
:1073B0006022002074220020FEE7FEE7FEE7FEE7E1
:1073C000FEE7FEE7FEE7FEE7FEE7FEE7FFF7C8BFE2
:1073D00000B583B00190019B1B68184600F01FF9AF
:1073E0000346002B04D10B494FF4F6701DF04AFD03
:1073F000019B1B681F2B02D84FF0A04306E0019BA6
:107400001B6803F01F02019B1A60034B184603B070
:107410005DF804FB706404000003005000B585B003
:107420000190084611461A4603468DF803300B4674
:107430008DF8023013468DF8013001AB1846FFF786
:10744000C7FF03909DF803209DF802305B001A43AC
:107450009DF801309B001A439DF818301B0242EA48
:1074600003019DF81C301B04019A1943039B02F58C
:10747000E07243F8221000BF05B05DF804FB00B5D0
:1074800085B0039000230193002300930023012281
:1074900001210398FFF7C2FF00BF05B05DF804FBB0
:1074A00000B585B003900B468DF80B309DF80B307E
:1074B0000022019200220092002200210398FFF78F
:1074C000ADFF00BF05B05DF804FB00B585B00190CD
:1074D00001AB1846FFF77CFF0390019B012202FAE3
:1074E00003F31946039800F086F800BF05B05DF875
:1074F00004FB00B585B0019001AB1846FFF768FFAB
:107500000390019B012202FA03F31946039800F04D
:107510007CF800BF05B05DF804FB00B585B00190B4
:1075200001AB1846FFF754FF0390039BD3F80435D3
:107530000293029BDA43019B012101FA03F31A40F3
:10754000039BC3F80825019B01229A40029B1A4025
:10755000039BC3F80C2500BF05B05DF804FB00B524
:1075600083B001900091009B002B03D10198FFF79D
:10757000C0FF02E00198FFF7A8FF00BF03B05DF86D
:1075800004FB00B585B0019001AB1846FFF720FF62
:107590000390039800F01FF80246019B22FA03F3C0
:1075A00003F00103184605B05DF804FB00B585B093
:1075B000019001AB1846FFF70BFF0390039800F012
:1075C00012F80246019B22FA03F303F00103184666
:1075D00005B05DF804FB82B00190019BD3F8103533
:1075E000184602B0704782B00190019BD3F8043571
:1075F000184602B0704782B001900091019B009A3A
:10760000C3F8082500BF02B0704782B00190009116
:10761000019B009AC3F80C2500BF02B0704784B0EC
:107620000190019B5B09029300230393029B002BB3
:1076300003D0029B012B04D007E04FF0FF330393EC
:1076400003E04FF6FF73039300BF019B03F01F039A
:107650000193039A019B22FA03F303F00103002B29
:1076600014BF01230023DBB2184604B070470000AA
:1076700000B585B00190019B032B03D911493A2035
:107680001DF000FC104A019B13441B781846FFF7BD
:107690008DFF0346002B14BF012300238DF80F300C
:1076A0009DF80F30002B14BF01230023DBB283F0C1
:1076B0000103DBB203F00103DBB2184605B05DF84D
:1076C00004FB00BFC86404002065040000B583B05B
:1076D0000190019B032B03D9074941201DF0D2FBE8
:1076E000064A019B13441B7800211846FFF737FF19
:1076F00000BF03B05DF804FBC8640400206504000B
:1077000000B583B00190019B032B03D907494720A3
:107710001DF0B8FB064A019B13441B780121184653
:10772000FFF71DFF00BF03B05DF804FBC864040051
:107730002065040000B583B00023019305E00198A3
:10774000FFF7DEFF019B01330193019B032BF6D969
:1077500000BF00BF03B05DF804FB00B583B0002399
:10776000019305E00198FFF7B1FF019B01330193FD
:10777000019B032BF6D900BF00BF03B05DF804FBEB
:1077800000B583B00190019B032B03D907495F200B
:107790001DF078FB064A019B13441B781846FFF73F
:1077A000BCFE00BF03B05DF804FB00BFC86404006A
:1077B0002065040000B583B00023019309E0094A65
:1077C000019B13441B781846FFF759FE019B0133B8
:1077D0000193019B032BF2D9FFF7ACFF00BF03B06D
:1077E0005DF804FB2065040000B585B00190019BA5
:1077F000032B03D91149AC201DF044FB104A019B17
:1078000013441B781846FFF7BCFE0346002B14BF39
:10781000012300238DF80F309DF80F30002B14BF8B
:1078200001230023DBB283F00103DBB203F0010389
:10783000DBB2184605B05DF804FB00BFC864040065
:107840002465040000B583B0002301930AE0094ACF
:10785000019B13441B7803211846FFF721FE019B6F
:1078600001330193019B032BF1D900BF00BF03B08B
:107870005DF804FB2465040084B001904FF0FF33F1
:107880000293002303930DE00A4A039B13441B78E1
:107890001A46019B934202D1039B029305E0039B8E
:1078A00001330393039B032BEED9029B184604B0CC
:1078B000704700BF2465040000B583B00190019BB0
:1078C000032B03D90549CB201DF0DCFA044A019BA8
:1078D00013441B78184603B05DF804FBC864040029
:1078E0002465040000B583B00190019B03F00103FF
:1078F000002B01D0FFF75EFF019B03F00203002B7A
:1079000001D0FFF79FFF00BF03B05DF804FB00004C
:1079100000B583B00190019B1B68184600F04CF83D
:107920000346002B04D10B494FF4F6701DF0AAFA60
:10793000019B1B681F2B02D84FF0A04306E0019B60
:107940001B6803F01F02019B1A60034B184603B02B
:107950005DF804FB286504000003005000B585B005
:1079600001900B468DF8033001AB1846FFF7D0FFAE
:107970000390019A039B02F5E07253F82230019ABA
:1079800023F44031039B02F5E07243F82210019A80
:10799000039B02F5E07253F822309DF80320120495
:1079A0001146019A1943039B02F5E07243F8221035
:1079B00000BF05B05DF804FB84B00190019B5B093A
:1079C000029300230393029B002B03D0029B012B05
:1079D00004D007E04FF0FF33039303E04FF6FF734B
:1079E000039300BF019B03F01F030193039A019BC4
:1079F00022FA03F303F00103002B14BF0123002339
:107A0000DBB2184604B0704700B583B00190019B0B
:107A1000032B04D80198FFF7E7FE034600E000239C
:107A2000184603B05DF804FB00B587B003460A466C
:107A30008DF8073013468DF8063000238DF8173087
:107A4000002304939DF807301846FFF715FF0490B4
:107A5000049B032B61D89DF80630022B52D0022BD9
:107A60005EDC002B31D0012B5AD13649049A1346E3
:107A70005B0013440B441B788DF817303149049A8E
:107A800013465B0013440B4401331B78002B0ED0CC
:107A90002D4B2E4A4FF4804118461BF0D5FF039022
:107AA000039B002B03D1294A9DF807301370254909
:107AB000049A13465B0013440B4402331978244A9A
:107AC000049B13440A461A702AE01F4B18461BF009
:107AD000F1FF1F4A049B134419781A48049A13466D
:107AE0005B001344034402331B78994217D11549B4
:107AF000049A13465B0013440B4402331B788DF841
:107B000017300CE00F49049A13465B0013440B44F2
:107B100001331B788DF8173002E000BF00E000BF92
:107B20009DF81730002B09D00A4B1B68002B05D09D
:107B3000084B1B689DF817201046984700BF07B0F8
:107B40005DF804FBC4230020D0230020F023002094
:107B5000F4230020C023002000B583B00190019BD6
:107B60001B7802211846FFF75FFF00BF03B05DF8E6
:107B700004FB000000B583B00C4B1B78002B0FD02A
:107B80000023019308E0019B022B02D00198FFF72C
:107B9000B7FD019B01330193019B032BF3D901E056
:107BA000FFF7C8FD00BF03B05DF804FB7C23002095
:107BB0002DE9F04F87B003468DF80F300023059371
:107BC00000230493D14B1B78002B04D0CF4B002211
:107BD0001A70FFF7CFFF9DF80F30172B00F22982A4
:107BE00001A252F823F000BF497C0200617C020030
:107BF000617C0200F37C0200817D0200F57D0200C1
:107C0000817E0200A17E0200B17E0200CF7E0200D2
:107C1000ED7E0200197F0200377F0200457F0200DF
:107C2000457F0200457F0200457F0200457F02003C
:107C3000D57F0200E37F0200F77F02000B80020085
:107C40002580020025800200FFF794FFB04B184604
:107C50001BF030FF0590AF4A9DF80F301370E9E13B
:107C60000020FFF705FD0346002B0DD00020FFF795
:107C700047FD9DF80F30022B02D14FF4E16301E084
:107C80004FF47A6304930BE00020FFF71FFD9DF88B
:107C90000F30022B01D1C82301E04FF4C8730493C5
:107CA0009C4A9DF80F301370994C049B18464FF076
:107CB00000014FF000024FF00003CB0343EA5043B2
:107CC000C20312F57A71009143F1000301934FF45E
:107CD000FA624FF00003DDE900011EF0F7F80246FA
:107CE0000B4613460022194620461BF0ADFE0590B8
:107CF000A0E10020FFF7BCFC0346002B0DD00020C4
:107D0000FFF7FEFC9DF80F30032B02D14FF44873B0
:107D100001E04FF47A6304930BE00020FFF7D6FCF8
:107D20009DF80F30032B01D1C82301E04FF4C87335
:107D30000493784A9DF80F301370754C049B1846D5
:107D40004FF000014FF000024FF00003CB0343EA75
:107D50005043C20312F57A7A43F1000B4FF4FA62F2
:107D60004FF00003504659461EF0B0F802460B464D
:107D700013460022194620461BF066FE059059E185
:107D80000020FFF775FC0346002B06D00020FFF70C
:107D9000B7FC4FF47A63049305E00020FFF796FCEC
:107DA0004FF4C87304935B4A9DF80F301370584C1E
:107DB000049B18464FF000014FF000024FF0000303
:107DC000CB0343EA5043C20312F57A7843F100092A
:107DD0004FF4FA624FF00003404649461EF076F831
:107DE00002460B4613460022194620461BF02CFE85
:107DF00005901FE10020FFF73BFC0346002B0CD051
:107E00000020FFF77DFC9DF80F30052B01D1C82322
:107E100001E04FF47A6304930BE00020FFF756FC77
:107E20009DF80F30052B01D1C82301E04FF4C87332
:107E30000493384A9DF80F301370354C049B184654
:107E40004FF000014FF000024FF00003CB0343EA74
:107E50005043C20312F57A7643F100074FF4FA62F9
:107E60004FF00003304639461EF030F802460B460C
:107E700013460022194620461BF0E6FD0590D9E086
:107E80000020FFF77DFC234A9DF80F301370204B34
:107E9000002240F2666118461BF0D6FD0590C9E04D
:107EA0000020FFF713FC1B4A9DF80F301370C1E050
:107EB000164B01221A700120FFF762FC144B0022BE
:107EC00040F2666118461BF0BFFD0590B2E00F4B13
:107ED00001221A700120FFF753FC0D4B00224FF4D2
:107EE000005118461BF0B0FD0590A3E0074B01229E
:107EF0001A700120FFF744FC054B002240F2666136
:107F000018461BF0A1FD059094E000BF75230020EA
:107F10008023002074230020494B01221A70012085
:107F2000FFF72EFC474B00224FF4005118461BF080
:107F30008BFD05907EE0FFF710FC434A9DF80F3063
:107F4000137077E0414B18461BF0B4FD05909DF887
:107F50000F30C3F111030493049B002B33D0059B16
:107F6000002B30D1049B012B26D9384E049B9BB2A9
:107F70001A46C82303FB02F318464FEAE0714FF09C
:107F800000024FF00003CB0343EA5043C20312F553
:107F90007A7443F100054FF4FA624FF00003204673
:107FA00029461DF093FF02460B4613460022194650
:107FB00030461BF049FD05900220FFF787FB244B5C
:107FC00001221A7036E00220FFF79AFB204B0022B4
:107FD0001A702FE0FFF7CEFD1B4A9DF80F3013708B
:107FE00028E0FFF7C7FD0020FFF770FB164A9DF859
:107FF0000F3013701EE0FFF7BDFD0120FFF766FB99
:10800000114A9DF80F30137014E0FFF7B3FD002004
:10801000FFF75CFB0120FFF759FB0B4A9DF80F307F
:10802000137007E0FFF799FB074A9DF80F301370B4
:1080300000E000BF059B184607B0BDE8F08F00BF09
:10804000752300208023002074230020A02300201B
:108050007C23002000B583B00190074B1B6803F020
:108060000103002B04D0054B1B781846FFF7A0FD39
:1080700000BF03B05DF804FB7823002074230020C8
:1080800000B583B001900220FFF77AFB00BF03B078
:108090005DF804FB00B585B003468DF8073000237A
:1080A0000393084B1B6803F00103002B05D09DF8D8
:1080B00007301846FFF77CFD0390039B184605B078
:1080C0005DF804FB7823002000B585B00190009195
:1080D000002303932A4A019B13602A4A009B1360E2
:1080E000019B03F00203002B2AD00023029308E037
:1080F00001220121029800F055F80390029B013300
:108100000293029B032B02D8039B002BF0D0039B0E
:10811000002B06D140F2333204211B4818F08EF9AF
:108120000390039B002B02D118F010FA0390039BDD
:10813000002B05D1154A002115481BF051FC039076
:10814000019B03F00103002B14D00120FFF7CAFBB1
:10815000039B002B05D10F4A00210F481BF040FC68
:108160000390039B002B05D10C4A01210C481BF006
:1081700037FC0390039B184605B05DF804FB00BF75
:1081800078230020C02300208C650400597B020066
:10819000886504005580020080650400818002002B
:1081A0008465040084B001900B468DF803301346BB
:1081B0008DF8023000230393019B032B3CD89DF8DC
:1081C0000230012B0BD19DF80330012B04D1019B10
:1081D000DBB20E33DBB200E000238DF802309DF8F5
:1081E0000330022B0FD0022B23DC002B16D0012BE7
:1081F0001FD11449019A13465B0013440B449DF8A8
:1082000002201A701AE00F49019A13465B001344CA
:108210000B4401339DF802201A700FE00949019ABE
:1082200013465B0013440B4402339DF802201A707E
:1082300004E00723039301E007230393039B1846FD
:1082400004B07047C423002000B585B001900B46F0
:108250008DF80330019B032B14D89DF80330002BBD
:1082600001D0032300E000238DF80F300198FFF7C1
:1082700023FB02469DF80F3019461046FFF76EFBB0
:10828000002300E00623184605B05DF804FB00B5A6
:1082900083B0019001210198FFF7D6FF03461846ED
:1082A00003B05DF804FB00B583B00122002100207B
:1082B000FFF778FF0190019B002B04D0019B072B57
:1082C00001D0019B1CE0072202210120FFF76AFF79
:1082D0000190019B002B04D0019B072B01D0019B37
:1082E0000EE0042202210020FFF75CFF0190019BB9
:1082F000002B04D0019B072B01D0019B00E0002341
:10830000184603B05DF804FB00B583B001220221DA
:108310000020FFF747FF0190019B002B04D0019B39
:10832000072B01D0019B1CE0072202210120FFF74F
:1083300039FF0190019B002B04D0019B072B01D03A
:10834000019B0EE00A2200210020FFF72BFF019085
:10835000019B002B04D0019B072B01D0019B00E067
:108360000023184603B05DF804FB00B583B001900C
:108370000120FFF749FB0346002B03D0019B02229B
:108380001A700CE00020FFF73FFB0346002B03D0E0
:10839000019B0B221A7002E0019B00221A7000BFA1
:1083A00003B05DF804FB00B583B00020FFF76FFF5A
:1083B0000190019B002B04D0019B062B01D0019B57
:1083C0000CE00120FFF763FF0190019B002B04D01C
:1083D000019B062B01D0019B00E00023184603B04F
:1083E0005DF804FB00B585B001900091019B1B88EE
:1083F000102B02D0112B18D02FE01A4B1B68002B2A
:108400000DD1FFF750FF0390039B002B07D0164BB5
:108410001B68002B03D0144B1B6803989847114B23
:108420001B6801330F4A136017E00E4B1B68013BBA
:108430000C4A13600B4B1B68002B0DD1FFF764FF38
:108440000390039B002B07D0074B1B68002B03D026
:10845000054B1B680398984700BF00BF05B05DF847
:1084600004FB00BFFC230020F823002000B585B0EA
:1084700001900091002303930A4A019B1360009B23
:10848000002B02D00098FFF770FF074B1B68002BF2
:1084900002D1FFF739FF0390039B184605B05DF842
:1084A00004FB00BFF8230020FC230020BFF34F8F04
:1084B00000BF064BDB6803F4E0620449044B13433E
:1084C000CB60BFF34F8F00BF00BFFDE700ED00E0C2
:1084D0000400FA0582B0194B1B68B3F1FF3F0AD1C3
:1084E000174B1B68DBB20193164B1B681B0903F08B
:1084F0000F03009305E0114B1B680193124B1B689F
:108500000093019B082B15D1009B032B12D801A2CD
:1085100052F823F025850200298502002D850200EE
:1085200031850200012306E0012304E0012302E07B
:10853000012300E00023184602B07047300100100C
:10854000E00F00F0E80F00F03401001082B0194B8A
:108550001B68B3F1FF3F0AD1174B1B68DBB20193D5
:10856000164B1B681B0903F00F03009305E0114B2A
:108570001B680193124B1B680093019B082B15D1BC
:10858000009B032B12D801A252F823F09D85020014
:10859000A1850200A5850200A9850200012306E04D
:1085A000012304E0012302E0012300E00023184638
:1085B00002B0704730010010E00F00F0E80F00F04B
:1085C0003401001082B0114B1B680193104B1B68E3
:1085D0000093019B082B15D1009B032B12D801A2FD
:1085E00052F823F0F5850200F9850200FD850200AE
:1085F00001860200012306E0002304E0002302E0DC
:10860000002300E00023184602B07047300100103C
:108610003401001082B0114B1B680193104B1B6892
:108620000093019B082B15D1009B032B12D801A2AC
:1086300052F823F045860200498602004D8602006A
:1086400051860200012306E0002304E0002302E03B
:10865000002300E00023184602B0704730010010EC
:108660003401001082B0114B1B680193104B1B6842
:108670000093019B082B15D1009B032B12D801A25C
:1086800052F823F095860200998602009D8602002A
:10869000A1860200012306E0002304E0002302E09B
:1086A000002300E00023184602B07047300100109C
:1086B0003401001082B0114B1B680193104B1B68F2
:1086C0000093019B082B15D1009B032B12D801A20C
:1086D00052F823F0E5860200E9860200ED860200EA
:1086E000F1860200012306E0002304E0002302E0FB
:1086F000002300E00023184602B07047300100104C
:108700003401001082B0194B1B68B3F1FF3F0AD14E
:10871000174B1B68DBB20193164B1B681B0903F058
:108720000F03009305E0114B1B680193124B1B686C
:108730000093019B082B15D1009B032B12D801A29B
:1087400052F823F055870200598702005D87020026
:1087500061870200012306E0012304E0012302E017
:10876000012300E00023184602B0704730010010DA
:10877000E00F00F0E80F00F034010010024B034A54
:108780001A6000BF704700BF742200200090D00321
:1087900008B5FFF79FFE0346002B0ED04FF0804335
:1087A0000022C3F80C214FF080430022C3F81021AF
:1087B0004FF080430022C3F83825FFF7C7FE034679
:1087C000002B76D04FF080537D4AD3F80434C2F8A2
:1087D00020354FF080537A4AD3F80834C2F8243554
:1087E0004FF08053764AD3F80C34C2F828354FF056
:1087F0008053734AD3F81034C2F82C354FF08053AD
:108800006F4AD3F81434C2F830354FF080536C4AB5
:10881000D3F81834C2F834354FF08053684AD3F88F
:108820001C34C2F840354FF08053654AD3F82034E9
:10883000C2F844354FF08053614AD3F82434C2F86B
:1088400048354FF080535E4AD3F82834C2F84C358F
:108850004FF080535A4AD3F82C34C2F850354FF0B9
:108860008053574AD3F83034C2F854354FF0805310
:10887000534AD3F83434C2F860354FF08053504A2D
:10888000D3F83834C2F864354FF080534C4AD3F8EB
:108890003C34C2F868354FF08053494AD3F840342D
:1088A000C2F86C354FF08053454AD3F84434C2F8CF
:1088B0007035FFF787FE0346002B02D0414B424A3A
:1088C0001A60FFF7A7FE0346002B03D03F4BFB22A5
:1088D000C3F81825FFF7C6FE0346002B0AD03C4B11
:1088E0001B6823F00F023B4B1B6803F00F03384952
:1088F00013430B60FFF7DEFE0346002B03D0364B1D
:108900004FF400721A60FFF7FDFE0346002B0DD0F6
:108910004FF08043D3F8003403F00103002B05D05F
:108920004FF080436FF00102C3F800242B4BD3F8C3
:1089300088302A4A43F47003C2F88830BFF34F8F5F
:1089400000BFBFF36F8F00BF4FF01023D3F800328A
:10895000002B05DB4FF01023D3F80432002B2BDA69
:108960001F4B0122C3F8042500BF1D4BD3F8003470
:10897000002BFAD04FF010231222C3F8002200BFC0
:10898000174BD3F80034002BFAD04FF010231222EB
:10899000C3F8042200BF124BD3F80034002BFAD0E6
:1089A0000F4B0022C3F8042500BF0D4BD3F8003451
:1089B000002BFAD0FFF77AFDFFF7E0FE00BF08BDFD
:1089C00000C000408C5600404881030000F0004089
:1089D000E40E0040580200104096024000ED00E016
:1089E00000E0014072DF704700BF184673DF704738
:1089F00000BF184674DF704700BF184682B0019070
:108A0000019B93F83034184602B0704784B001904F
:108A1000002303930AE0019A039B13441B78002B65
:108A200001D0012306E0039B01330393039B052B35
:108A3000F1D90023184604B07047000082B0034605
:108A40008DF807309DF807305A1C074B83FB021343
:108A50005910D317C91A0B469B000B44D11ACBB23D
:108A6000184602B0704700BF6766666682B0019024
:108A70000091009BDB7B012B04D1009B9A88019B1A
:108A8000A3F8242400BF02B0704700B585B0019060
:108A90000091019B002283F82E24009B9A88019B61
:108AA000B3F824349A4216D1019B1B7983F0010359
:108AB000DBB2002B0FD00121019800F0ABFA03903C
:108AC000039B002B07D0019B9B6B002B03D0019BCA
:108AD0009B6B0398984700BF05B05DF804FB00B599
:108AE00085B001900091009B1B88262B1ED1009B16
:108AF0001B7A012B03D0009B1B7A022B17D1019B01
:108B00009B781846FFF79AFF03461946019800F034
:108B100081FA0390039B002B09D0019B9B6B002BD8
:108B200005D0019B9B6B0398984700E000BF05B000
:108B30005DF804FB00B585B001900B468DF803305D
:108B4000019B03F227431846FFF760FF03468DF8A9
:108B50000F309DF80330013B032B33D801A252F8AC
:108B600023F000BF758B0200998B0200AD8B0200D1
:108B7000B98B0200019B9B79002B0DD0019B93F8D0
:108B8000243083F00103DBB2002B05D09DF80F30B9
:108B9000002B01D0012316E0019BDB79002B05D0CF
:108BA0009DF80F30002B01D002230CE0019B1B7AB3
:108BB000002B01D0032306E0019B5B7A002B01D040
:108BC000042300E00023184605B05DF804FB00BF55
:108BD00082B001900091019B012283F83120019B1A
:108BE0000022C3F82024019B03F22642009B5A6016
:108BF000009B00229A60009B02221A70009B802238
:108C00009A810023184602B0704782B0019000910B
:108C1000019B022283F83120019B93F82430002B22
:108C200003D0009B07221A7002E0009B03221A70F7
:108C3000019B1B699AB2009B9A81019B0022C3F899
:108C40002024019B03F22642009B5A60019BDA68B4
:108C5000009B9A600023184602B0704700B583B0AD
:108C60000190019B5B79002B0FD0019B93F82E3470
:108C700083F00103DBB2002B07D00198FFF7BEFEA3
:108C80000346002B01D0012300E0002303F0010381
:108C9000DBB2184603B05DF804FB00B585B0019067
:108CA0000B468DF80330019BD3F81004019BB3F8F9
:108CB00014340122194601F084F90390039B002B20
:108CC00003D0039B9DF803201A70019B03F154000D
:108CD000019B03F58261019B3C331A46FFF782FE3C
:108CE0000346184605B05DF804FB00B585B0019059
:108CF0000091019B5A69009B9A60019B9B699AB203
:108D0000009B9A81019B93F82430002B04D0019B97
:108D1000062283F83C2003E0019B012283F83C20DB
:108D20000198FFF79BFF0346002B13D0009B022204
:108D30001A7504210198FFF7B0FF0390039B02937B
:108D4000029B002B01D0029B0FE0019B052283F8C0
:108D5000312003E0019B032283F83120019B03F5BE
:108D60008262019BC3F820240023184605B05DF8F9
:108D700004FB00B585B001900091019BDA69009B6E
:108D80009A60019B1B6A9AB2009B9A81019B93F89F
:108D90002430002B04D0019B062283F83C2003E002
:108DA000019B012283F83C200198FFF757FF0346FF
:108DB000002B13D0009B02221A7504210198FFF7A3
:108DC0006CFF0390039B0293029B002B01D0029B3C
:108DD0000FE0019B062283F8312003E0019B04226F
:108DE00083F83120019B03F58262019BC3F82024A4
:108DF0000023184605B05DF804FB82B00190019B8A
:108E00009B78002B06D0019B93F82030002B01D0DB
:108E1000002300E00123184602B0704784B001909F
:108E2000019B93F82430002B03D0EE23ADF80E30D5
:108E300002E01F23ADF80E30BDF80E30184604B026
:108E4000704782B001900B468DF80330019B9DF86E
:108E5000032083F8302000BF02B0704730B587B0E0
:108E600001900091009B002B02D0019B002B01D1AF
:108E70000E23B8E0009B78331846FFF7BEFF034689
:108E800083F00103DBB2002B01D00723ABE0019B91
:108E900000229A70019A009B141D03F178050FCDF2
:108EA0000FC40FCD0FC495E8070084E80700019BAD
:108EB000002283F83020009BD3F8A420019B5A6342
:108EC000009BD3F8A820019B9A63019B4FF6FF7289
:108ED000A3F82424019B03F58262019BC3F820249C
:108EE000019B03F226430722002118461DF02CF9AE
:108EF000019B1B7883F00103DBB2002B03D0019BA5
:108F0000FF2283F85420019B03F15502019BC3F813
:108F100010240198FFF782FF03461A46019BA3F82D
:108F200014240098019B03F15501019B03F21443A3
:108F30001A4600F0D5FE0590059B0493049B002B78
:108F400001D0049B4FE0019B03F23122019BC3F847
:108F500018240198FFF762FF03461A46019BA3F805
:108F60001C24009B03F13C00019BD3F81814019BC7
:108F700003F21C431A4600F0B3FE0590059B0393D1
:108F8000039B002B01D0039B2DE0019B012283F862
:108F90005120019B9B699AB2019BA3F84820019B39
:108FA000012283F83C20019B00221A64019B0022CD
:108FB00083F85020019B5A69019B5A64019B03F17D
:108FC0005400019B3C331A460021FFF70BFD05902E
:108FD000059B0293029B002B01D0029B03E0019BA7
:108FE00001221A70059B184607B030BD82B001906F
:108FF000019B1B68012B07D0019B1B68022B03D030
:10900000019B1B68042B01D1012300E000231846BB
:1090100002B0704700B585B001900B468DF8033063
:10902000019B1B7883F00103DBB2002B01D00823E6
:1090300009E1019B9DF803209A70019B03F22643EE
:109040000722002118461DF07FF8019B9B79002B19
:1090500003D0019B9B78012B0FD0019BDB79002B68
:1090600003D0019B9B78012B07D0019BDB79002B60
:1090700014D0019B9B78022B10D1019B5B6B002BC2
:1090800008D0019B012283F82D24019B5B6B0820F3
:10909000984703E0019B002283F82D249DF80330BC
:1090A00019460198FFF746FD03461A46019B9A7040
:1090B000019B5B6B002B20D0019B9B78032B03D083
:1090C000019B9B78042B18D1019B5B79002B14D05A
:1090D000019B93F82E3483F00103DBB2002B0CD0FC
:1090E000019B002283F83024019B012283F82F2466
:1090F000019B5B6B0720984703E0019B002283F8EC
:109100002F24019B3C331822002118461DF01CF827
:10911000019B012283F83C20019B2C331846FFF76A
:1091200065FF0346002B06D0019BDB6ADAB2019B88
:1091300083F8512003E0019B012283F85120019B19
:1091400093F82430002B12D0019B28331846FFF7E8
:109150004DFF0346002B06D0019B9B6ADAB2019BB0
:1091600083F8522003E0019B012283F85220019BE7
:10917000002283F85020019B9B78042B31D801A258
:1091800052F823F0D991020099910200A9910200AE
:10919000B9910200C9910200019B3C331946019824
:1091A000FFF716FD03901DE0019B3C331946019823
:1091B000FFF72BFD039015E0019B3C331946019806
:1091C000FFF793FD03900DE0019B3C331946019896
:1091D000FFF7CFFD039005E0019B002283F83120CB
:1091E00000E000BF019B9B78002B20D0019B03F186
:1091F0005400019BD3F82014019B3C331A46FFF71F
:10920000F1FB0390039B002B01D0039B1BE0019B10
:1092100093F85420019B93F8303019461046FFF71D
:10922000E5FB0390039B002B01D0039B0BE0019B0C
:109230005B6B002B06D0019B5B6B019A92F831208F
:10924000104698470023184605B05DF804FB00BFA0
:1092500000B585B001900091009B0393019B1B8892
:10926000262B10D0262B13DC102B02D0112B05D06F
:109270000EE001990398FFF7F9FB0AE001990398C2
:10928000FFF703FC05E001990398FFF728FC00E0D5
:1092900000BF00BF05B05DF804FB00B585B00190CC
:1092A000019B93F854301846FFF7A4FB019B012261
:1092B00083F82E24019B002283F83024019B002296
:1092C00083F8502006210198FFF7E7FC0390039BE9
:1092D0000293029B002B01D0029B12E0019B9B7822
:1092E00019460198FFF796FE0390039B002B07D0C9
:1092F000019B9B6B002B03D0019B9B6B03989847B2
:109300000023184605B05DF804FB84B003460291C3
:1093100001928DF80F30019BFF221A70019BFF22F2
:109320005A70019B00229A70019B00225A609DF89E
:109330000F30002B03D0029B1A78019B1A709DF806
:109340000F30012B03D9029B5A78019B5A709DF86C
:109350000F30022B09D99DF80F30023BDAB2019B86
:109360009A70029B9A1C019B5A6000BF04B0704720
:1093700084B00190009100238DF80F30009B002BEA
:109380002FD09DF80F305A1C8DF80F201A46009BE5
:109390001344019A12781A709DF80F305A1C8DF8F8
:1093A0000F201A46009B1344019A52781A7000232A
:1093B000029310E0019B5A68029B1A449DF80F30FB
:1093C000591C8DF80F101946009B0B4412781A7027
:1093D000029B01330293019B9B781A46029B9342A6
:1093E000E8DB9DF80F30184604B070476DDF70471A
:1093F00000BF184679DF704700BF18467DDF704711
:1094000000BF184664DF704700BF184682B00346AD
:109410000091ADF80630BDF80630DAB2009B1A7044
:10942000BDF806301B0A9AB2009B0133D2B21A7003
:109430000223184602B0704700B589B0039002912C
:109440001346ADF80630029B1B8803F10902BDF8F4
:1094500006309A4201D90C2353E004AB1846FFF7BB
:10946000C5FF0790079B0693069B002B01D0069B28
:1094700047E0029B1B881A46039B134408221A707C
:10948000029B1B8801339AB2029B1A80029B1B88A5
:109490001A46039B13441B221A70029B1B8801333C
:1094A0009AB2029B1A80029B1B881A46039B98184B
:1094B00004AB0133062219461CF01DFE029B1B88DB
:1094C00006339AB2029B1A809DF8103023F00103F4
:1094D000DBB2002B07D1029B1B881A46039B134467
:1094E00000221A7006E0029B1B881A46039B134455
:1094F00001221A70029B1B8801339AB2029B1A80C8
:109500000023184609B05DF804FB00B589B003904C
:1095100002910192ADF80230039B1B78012B05D11B
:10952000039B5B78002B01D1072392E0019B1B88F2
:109530009A1CBDF802309A420ED8039B1B78012B6F
:109540000CD1019B1B881A46039B5B7813449A1C21
:10955000BDF802309A4201D90C237AE0019B1B88A6
:10956000BDF80220D31A9BB2023BADF81C30BDF807
:109570001C30ADF81230019B1B880233029A134451
:109580000DF1120211461846FFF738FF0690069BB0
:109590000593059B002B01D0059B5AE0039B1B788C
:1095A000022B06D0039B5B789AB2BDF812309A4228
:1095B00009D3BDF81230BDF81C209A4203D3092309
:1095C0008DF81F3017E008238DF81F30039B1B78A0
:1095D000012B0CD1039B5B789BB2BDF81C209A42F7
:1095E00005D3039B5B789BB2ADF8123003E0BDF866
:1095F0001C30ADF81230BDF81230FE2B01D90C230F
:1096000027E0BDF81230DAB2019B1B881946029B95
:109610000B440132D2B21A70019B1B8801339AB2FB
:10962000019B1A80019B1B881A46029B13449DF8DC
:109630001F201A70019B1B8801339AB2019B1A806C
:10964000019B1A88BDF8123013449AB2019B1A800C
:109650000023184609B05DF804FB00B589B00390FB
:1096600002911346ADF80630029B1B881A1DBDF807
:1096700006309A4201D90C233BE00DF1160318463F
:10968000FFF7B8FE0790079B0693069B002B01D0BF
:10969000069B2EE0029B1B881A46039B1344032261
:1096A0001A70029B1B8801339AB2029B1A80029B9C
:1096B0001B881A46039B134419221A70029B1B88AD
:1096C00001339AB2029B1A80BDF81620029B1B88B8
:1096D0001946039B0B4419461046FFF797FE0346B5
:1096E0001946029B1A888BB213449AB2029B1A80C5
:1096F0000023184609B05DF804FB84B00291019282
:109700001A4603468DF80F301346ADF80C30019B16
:109710001B88DA1CBDF80C309A4201D90C2328E0D2
:10972000019B1B881A46029B134402221A70019B5C
:109730001B8801339AB2019B1A80019B1B881A4631
:10974000029B134401221A70019B1B8801339AB2B9
:10975000019B1A80019B1B881A46029B13449DF8AB
:109760000F201A70019B1B8801339AB2019B1A804B
:109770000023184604B0704784B0029101921A4643
:1097800003468DF80F301346ADF80C30019B1B8853
:10979000DA1CBDF80C309A4201D90C2328E0019B59
:1097A0001B881A46029B134402221A70019B1B88D5
:1097B00001339AB2019B1A80019B1B881A46029BB7
:1097C00013440A221A70019B1B8801339AB2019B31
:1097D0001A80019B1B881A46029B13449DF80F2098
:1097E0001A70019B1B8801339AB2019B1A800023D7
:1097F000184604B0704700B58FB0039001930B4634
:109800008DF80B3013468DF80A3000238DF8333075
:10981000109B1B88ADF8303000230D9371E0039B43
:109820005A680D9B9B001A4405AB106818600DF137
:109830001B0105AB00221846FFF7E4FD0A900A9BC6
:109840000993099B002B01D0099B7CE09DF81B30FC
:109850009DF80A209A4251D19DF83330002B01D057
:10986000002300E002238DF82330109B1B881A464A
:109870009DF81B301A449DF823301A44BDF844303B
:109880009A4201DD0C235EE09DF8333083F0010342
:10989000DBB2002B16D0109B1B8801339AB2109BB1
:1098A0001A80109B1B881A46019B13449DF80B20BD
:1098B0001A70109B1B8801339AB2109B1A800123E7
:1098C0008DF83330109B1B881A46019B1A440DF10A
:1098D0001B0105AB1846FFF795FD0A900A9B0793FD
:1098E000079B002B01D0079B2DE0109B1A889DF849
:1098F0001B309BB213449AB2109B1A800D9B01330C
:109900000D93039B1B881A460D9B934287DB9DF8A2
:109910003330002B16D0109B1A88BDF83030D31A84
:109920009BB2013BADF82E30BDF82E30FF2B01D994
:109930000C2308E0BDF83030019A1344BDF82E2006
:10994000D2B21A70002318460FB05DF804FB00B5C0
:109950008BB0059003930B468DF8133013468DF8AA
:1099600012309DF81310BDF8343001930C9B009316
:10997000039B02220598FFF73EFF0990099B08937D
:10998000089B002B01D0089B14E09DF81210BDF835
:10999000343001930C9B0093039B10220598FFF732
:1099A0002AFF0990099B0793079B002B01D0079B77
:1099B00000E0002318460BB05DF804FB82B0019074
:1099C000019B1B88052B0AD9019B1B88B3F5486FA7
:1099D00007D9019B1B884FF6FF72934201D00723E2
:1099E00025E0019B5B88052B0AD9019B5B88B3F5B9
:1099F000486F07D9019B5B884FF6FF72934201D0F5
:109A0000072314E0019B1B884FF6FF7293420DD091
:109A1000019B5B884FF6FF72934207D0019B1A8827
:109A2000019B5B889A4201D9072300E00023184676
:109A300002B0704700B587B0039002910192ADF873
:109A40000230019B1B889A1DBDF802309A4201D951
:109A50000C234DE00398FFF7B1FF0590059B04939D
:109A6000049B002B01D0049B42E0019B1B881A46FB
:109A7000029B134405221A70019B1B8801339AB282
:109A8000019B1A80019B1B881A46029B13441222D9
:109A90001A70019B1B8801339AB2019B1A80039BA9
:109AA0001A88019B1B881946029B0B4419461046D5
:109AB000FFF7ACFC03461946019B1A888BB213448E
:109AC0009AB2019B1A80039B5A88019B1B881946F6
:109AD000029B0B4419461046FFF798FC03461946B3
:109AE000019B1A888BB213449AB2019B1A800023FF
:109AF000184607B05DF804FB00B587B003900291EB
:109B00000192ADF80230039B9B8802330593019BC1
:109B10001B881A46059B13449A1CBDF802309A42D2
:109B200001D90C2354E0059BFE2B01D90C234FE0F7
:109B3000059BDAB2019B1B881946029B0B4401323C
:109B4000D2B21A70019B1B8801339AB2019B1A8012
:109B5000019B1B881A46029B1344FF221A70019B2B
:109B60001B8801339AB2019B1A80039B1A88019BC0
:109B70001B881946029B0B4419461046FFF746FC0A
:109B800003461946019B1A888BB213449AB2019B73
:109B90001A80039B9B88002B19D0039B9B68002B8A
:109BA00001D1072314E0019B1B881A46029B9818D9
:109BB000039B9968039B9B881A461CF09CFA019BA7
:109BC0001A88039B9B8813449AB2019B1A80002336
:109BD000184607B05DF804FB00B589B00390029108
:109BE0000192ADF80230039B9B6A002B01D1072341
:109BF00072E000238DF81F3066E0039B996A9DF8A0
:109C00001F2013465B0013449B000B440693069BE6
:109C10009B8802330593059BFE2B01D90C235BE047
:109C2000059BDAB2019B1B881946029B0B4401324B
:109C3000D2B21A70019B1B8801339AB2019B1A8021
:109C4000019B1B881A46029B134416221A70019B23
:109C50001B8801339AB2019B1A80069B1A88019BCC
:109C60001B881946029B0B4419461046FFF7CEFB92
:109C700003461946019B1A888BB213449AB2019B82
:109C80001A80069B9B88002B19D0069B9B68002B93
:109C900001D1072320E0019B1B881A46029B9818DC
:109CA000069B9968069B9B881A461CF024FA019B28
:109CB0001A88069B9B8813449AB2019B1A809DF8D0
:109CC0001F3001338DF81F30039B93F82C309DF823
:109CD0001F209A4291D30023184609B05DF804FB77
:109CE00000B595B005900491039200231393039B54
:109CF0001B88ADF84A30039B00221A80059B93F81D
:109D00002D30002B0ED0BDF84A301A460399049826
:109D1000FFF792FB1390139B1193119B002B01D023
:109D2000119BD8E0059B9B78002B0ED0BDF84A30E4
:109D30001A4603990498FFF790FC1390139B109315
:109D4000109B002B01D0109BC5E0059BDB78002BFE
:109D500010D0059BDB7858B2BDF84A30039A0499BD
:109D6000FFF7CBFC1390139B0F930F9B002B01D09D
:109D70000F9BB0E0059B5B68002B11D0059B5B68D7
:109D800093F90000BDF84A30039A0499FFF7F4FCF8
:109D90001390139B0E930E9B002B01D00E9B9AE009
:109DA000059B1B89002B14D0059B03F10800BDF80F
:109DB0004A300193039B0093049B06220221FFF784
:109DC000C6FD1390139B0D930D9B002B01D00D9B93
:109DD00081E0059B1B8A002B14D0059B03F110002A
:109DE000BDF84A300193039B0093049B0722032193
:109DF000FFF7ADFD1390139B0C930C9B002B01D030
:109E00000C9B68E0059B1B8B002B14D0059B03F17A
:109E10001800BDF84A300193039B0093049B152260
:109E20001421FFF794FD1390139B0B930B9B002BB6
:109E300001D00B9B4FE0059B1B6A002B0FD0059BAD
:109E4000186ABDF84A30039A0499FFF7F3FD13909E
:109E5000139B0A930A9B002B01D00A9B3BE0059BB6
:109E60005B6A002B0FD0059B586ABDF84A30039AF5
:109E70000499FFF741FE1390139B0993099B002B54
:109E800001D0099B27E0059B93F82C30002B0ED0C6
:109E9000BDF84A30039A04990598FFF79DFE139088
:109EA000139B0893089B002B01D0089B13E0059B94
:109EB0001B78002B0ED0BDF84A30039A0499059800
:109EC000FFF723FB1390139B0793079B002B01D0F5
:109ED000079B00E0139B184615B05DF804FB86B0A5
:109EE000039001921A460B46ADF80A3013468DF8DE
:109EF0000930039B002B02D0019B002B01D10023D2
:109F00005CE00023ADF816300CE0BDF81630039A83
:109F100013441B789AB2BDF8163013449BB2013338
:109F2000ADF81630BDF816305A1CBDF80A309A420A
:109F30000FDA019B1B88BDF816209A42E5D3BDF8C5
:109F400016300133039A13441B789DF809209A4276
:109F5000DBD1BDF81620BDF80A309A4201D30023A8
:109F60002CE0BDF816300233ADF81430BDF81630D1
:109F7000039A13441B78002B08D0BDF81630039ABF
:109F800013441B789BB2013B9BB200E00023ADF869
:109F90001230BDF81230002B08D0BDF81420BDF8E7
:109FA00012301A44BDF80A309A4201DD002305E060
:109FB000019BBDF814201A80BDF81230184606B077
:109FC000704700B585B001900B46ADF802301346DE
:109FD0008DF801300023ADF80C309DF8013003AA54
:109FE000BDF802100198FFF77AFF0346ADF80E3076
:109FF000BDF80E30002B01D1002304E0BDF80C3079
:10A000001A46019B1344184605B05DF804FB75DF42
:10A01000704700BF184676DF704700BF18467ADFEA
:10A02000704700BF18467BDF704700BF184600002E
:10A0300084B00346ADF806300023039316E00F49C1
:10A04000039A13469B0013449B000B441B88BDF8E6
:10A0500006209A4207D1039A13469B0013449B00A3
:10A06000064A134406E0039B01330393039B002B32
:10A07000E5D00023184604B0704700BF202400201C
:10A0800082B001900B46ADF80230019BBDF8022072
:10A090001A80019B00221A72019B054903F10A02F2
:10A0A0000B4603CB1060516000BF02B0704700BF89
:10A0B0005024002082B00190019B4FF6FF721A805D
:10A0C00000BF02B0704788B00390029111461A4653
:10A0D0000B46ADF806301346ADF80430039B9B8861
:10A0E0001A46BDF8063013440793039B9B88194614
:10A0F000039B9B88BDF80620934228BF13469BB262
:10A10000CB1A0693039BDB881A46BDF80430134430
:10A110000593039BDB881946039BDB88BDF804206D
:10A12000934228BF13469BB2CB1A0493029B5A88D2
:10A13000039B1B889A4205D3029B5A88039B5B882A
:10A140009A4201D900231CE0029B9B881A46069B79
:10A15000934205D8029B9B881A46079B934201D2E3
:10A1600000230EE0029BDB881A46049B934205D82D
:10A17000029BDB881A46059B934201D2002300E034
:10A180000123184608B0704700B583B00190064B14
:10A190009B69002B03D0044B9B690198984700BF33
:10A1A00003B05DF804FB00BF3424002000B585B087
:10A1B00003460091ADF80630BDF806300099184608
:10A1C000FFF725FF0390039B002B05D0039B112B6A
:10A1D00002D00398FFF7D8FF039B002B0CBF01238D
:10A1E0000023DBB2184605B05DF804FB00B589B06A
:10A1F0000190019B0793079B9BB21846FFF718FF3E
:10A200000690069B002B42D0069B1A7A224B1B7BA2
:10A210009A4215D2079B9AB2069B0A3319461046FA
:10A22000FFF7C4FF03468DF813309DF81330002B61
:10A230002DD0069B1B7A0133DAB2069B1A7226E0F8
:10A24000069B00221A72144B1B7C002B0FD0079B1D
:10A250009BB23B211846FFF7DEFE0590059B002BC5
:10A2600005D0059B082B02D00598FFF78DFF0A4B00
:10A270005B69002B0BD000238DF80C30079B9BB241
:10A28000ADF80E30044B5B6903AA1046984700BF37
:10A2900009B05DF804FB00BF3424002030B587B05E
:10A2A0000190019B002B01D10E2353E02B4A019B0F
:10A2B00014461D460FCD0FC495E8070084E807003B
:10A2C000264B274A1A60019B1B68002B11D0019B6B
:10A2D0001B681846FFF7A3FE0490049B002B01D0D7
:10A2E000049B37E0019B1A681D4B1068516803C33B
:10A2F00008E01B48FFF797FE0490049B002B01D059
:10A30000049B27E00023059320E0059A13469B0059
:10A3100013449B00134A134403930398FFF7CAFEA8
:10A32000059B5B01104A1A44039B5A60039B04334C
:10A330000E4A0021184619F053FB0490049B002B91
:10A3400001D0032306E0059B01330593059B002BF9
:10A35000DBD00023184607B030BD00BF34240020F6
:10A36000502400202024002000240020EDA1020021
:10A3700000B587B003460091ADF80630009B5B7ACC
:10A38000002B1AD1009B1B7A002B03D1164B5B6864
:10A39000059302E0144B9B680593009B5B68BDF836
:10A3A00006200599184619F04FFB0490049B002BDA
:10A3B00016D00498FFF7E8FE12E0009B00221A7204
:10A3C000094B5B69002B0BD001238DF80C30BDF8D5
:10A3D0000630ADF80E30044B5B6903AA104698476F
:10A3E00000BF07B05DF804FB3424002000B585B041
:10A3F0000190019BDB7B8DF80F30019B9B88ADF8B2
:10A400000C309DF80F30012B2CD14FF6FF70FFF769
:10A410000FFE0290029B002B03D10420FFF7B4FE35
:10A4200021E0BDF80C3019460298FFF729FE029B87
:10A4300003F10A00019B03F110014FF6FF7340F294
:10A44000F312FFF740FE03461A46029B5A72074B6F
:10A45000DB89002B07D1BDF80C3002991846FFF7B5
:10A4600087FF00E000BF05B05DF804FB3424002046
:10A4700000B587B00190019B9B88ADF81630BDF800
:10A4800016301846FFF7D4FD0490049B002B0ED025
:10A49000049B5B68184619F00DFB0390039B002B8F
:10A4A00002D00398FFF770FE0498FFF703FE00BF89
:10A4B00007B05DF804FB000000B587B00190019B78
:10A4C00006330593059B1A88194BDB899A422BD1D9
:10A4D000059B5B89022B27D1019B9B88ADF812302D
:10A4E000BDF812301846FFF7A3FD0390039B002B25
:10A4F0001AD0059B0C33184600F0AEFB0346002B28
:10A5000006D0BDF8123003991846FFF731FF0BE073
:10A51000039B5B68184619F0CDFA0290029B002B52
:10A5200002D00298FFF730FE00BF07B05DF804FBD1
:10A530003424002000B585B00190019B9B88ADF8C4
:10A540000E30BDF80E301846FFF772FD0290029BE8
:10A55000002B15D0029B03F10A00019B03F10801B7
:10A560004FF6FF7340F2F312FFF7ADFD03461A46B4
:10A57000029B5A72BDF80E3002991846FFF7F8FE9A
:10A5800000BF05B05DF804FB00B583B001900091F9
:10A59000019B1B88502B12D0502B18DC122B12D091
:10A5A000122B14DC102B02D0112B04D00FE00198D9
:10A5B000FFF71CFF0CE00198FFF75AFF08E0019835
:10A5C000FFF77AFF04E00198FFF7B4FF00E000BF57
:10A5D00000BF03B05DF804FB30B58FB0019000916F
:10A5E00000230293009B002B1AD000230D9314E04C
:10A5F0006B460D99184615F07CFC0346002B09D0DC
:10A60000029B5A1C02920D9A92B25B000EA90B4457
:10A6100023F82C2C0D9B01330D930D9B132BE7D9A5
:10A62000019B1D4602AC0FCC0FC50FCC0FC594E8A3
:10A63000070085E8070001980FB030BD00B583B072
:10A640000346ADF80630BDF80630132B01D90023C0
:10A650000CE0BDF806301946064815F0F5FBBDF8CC
:10A6600006301946044815F0EFFB0123184603B0E5
:10A670005DF804FB602400205C24002000B585B058
:10A680000346ADF80630002303930DE0039B9B00C7
:10A69000094A13440433BDF806201146184615F044
:10A6A0000FFC039B01330393039B1D2BEED900BFCB
:10A6B00000BF05B05DF804FB5824002000B583B04E
:10A6C0000346ADF80630BDF806301946034815F0CC
:10A6D000F7FB00BF03B05DF804FB00BF602400205F
:10A6E00030B59BB0184B9B68DB431893164B5A68E8
:10A6F00018AB1146184615F0CEF8189A6B4611465D
:10A700001846FFF769FF0DAC6D460FCD0FC40FCD96
:10A710000FC495E8070084E80700002319930BE0B5
:10A72000199B5B001AAA134433F8303C1846FFF714
:10A73000A5FF199B013319930D9B199A9A42EFD3E8
:10A7400000BF00BF1BB030BD5824002000B583B04F
:10A7500003468DF807309DF807301946034815F079
:10A76000C8FB0346184603B05DF804FB58240020DC
:10A7700000B583B001900B46ADF8023013468DF85A
:10A7800001309DF80130002B06D0BDF8023019468B
:10A79000019815F059FB05E0BDF802301946019803
:10A7A00015F08EFB00BF03B05DF804FB00B585B06B
:10A7B00001900091019B9B88ADF80E30019B1B8896
:10A7C000103B0A2B00F2888001A252F823F000BF50
:10A7D000FDA7020039A80200D9A80200D9A80200EA
:10A7E000D9A80200D9A80200D9A80200D9A802005D
:10A7F000D9A80200A3A8020045A80200FFF770FF35
:10A80000BDF80E301846FFF719FF034683F0010329
:10A81000DBB2002B05D0324AF021042019F0B4FD40
:10A8200057E0019BDB7B022B53D1BDF80E3019465C
:10A830002C4815F009FB4CE0BDF80E301846FFF728
:10A840003DFF49E0019B1B7AC3F30313DBB28DF894
:10A850000D309DF80D30032B8CBF01230023DAB29D
:10A86000BDF80E3019462048FFF782FF9DF80D30E5
:10A87000022B8CBF01230023DAB2BDF80E3019463B
:10A880001A48FFF775FF9DF80D30012B8CBF01238F
:10A890000023DAB2BDF80E3019461548FFF768FFFD
:10A8A0001AE0019B1B7A002B15D1019B5B7AC3F345
:10A8B000C003DBB2002B14BF012300238DF80C3042
:10A8C0009DF80C20BDF80E3019460748FFF750FFE1
:10A8D00001E000BF00E000BF00BF05B05DF804FB71
:10A8E000AC65040064240020702400206C24002047
:10A8F0006824002000B583B00346ADF80630BDF8EB
:10A900000630132B01D9002306E0BDF806301946A6
:10A91000034815F0EEFA0346184603B05DF804FB51
:10A920005C24002000B585B00346ADF80630002356
:10A930008DF80F30BDF806301846FFF7DBFF0346F1
:10A94000002B11D0BDF8063019460A4815F0D1FA8F
:10A9500003468DF80E309DF80E30002B01D00223F7
:10A9600000E001238DF80F309DF80F30184605B038
:10A970005DF804FB6424002000B585B00346ADF803
:10A98000063000238DF80F30BDF806301846FFF76B
:10A99000B1FF0346002B11D0BDF8063019460A4816
:10A9A00015F0A7FA03468DF80E309DF80E30002BF7
:10A9B00001D0022300E001238DF80F309DF80F3005
:10A9C000184605B05DF804FB6024002000B583B094
:10A9D0000346ADF80630BDF806301846FFF78AFF8B
:10A9E0000346002B07D0BDF806301946044815F081
:10A9F00080FA034600E00023184603B05DF804FB2C
:10AA00006824002000B583B00346ADF80630BDF8D9
:10AA100006301846FFF76EFF0346002B07D0BDF83F
:10AA200006301946044815F064FA034600E0002396
:10AA3000184603B05DF804FB6C24002000B583B019
:10AA40000346ADF80630BDF806301846FFF752FF52
:10AA50000346002B07D0BDF806301946044815F010
:10AA600048FA034600E00023184603B05DF804FBF3
:10AA70007024002000B583B00190054B5A68019BFB
:10AA800011461846FFF7A8FD019803B05DF804FBD6
:10AA90005824002000B583B01821074815F041FA6A
:10AAA0000190019B182B01D1182301E0019BDBB21F
:10AAB000184603B05DF804FB5824002000B583B0AD
:10AAC00003460A46ADF8063013468DF805309DF86A
:10AAD00005301846FFF73AFE0346002B16D0BDF8A6
:10AAE00006301846FFF706FF0346002B0ED09DF8F0
:10AAF000053006339B00084A13440433BDF8062092
:10AB00001146184615F0F5F9034600E000231846F3
:10AB100003B05DF804FB00BF5824002000B583B0EB
:10AB20000346ADF806300B468DF8053013468DF818
:10AB300004309DF805301846FFF708FE0346002B49
:10AB400015D0BDF806301846FFF7D4FE0346002B9B
:10AB50000DD09DF8053006339B00074A134404339B
:10AB60009DF80420BDF806101846FFF701FE00BF4F
:10AB700003B05DF804FB00BF5824002000B587B087
:10AB8000039002910192029B002B01D100231FE050
:10AB900000230593039B002B19D00023049313E09B
:10ABA00003AB0499184615F0A4F90346002B08D00E
:10ABB000049B9AB2029B019910469847059B01336A
:10ABC0000593049B01330493049B132BE8D9059B45
:10ABD000184607B05DF804FB00B585B00346029146
:10ABE00001928DF80F309DF80F301846FFF7AEFD3B
:10ABF000034683F00103DBB2002B01D000230CE0FD
:10AC00009DF80F30074A06339B0013445B68019A96
:10AC100002991846FFF7B2FF0346184605B05DF8E3
:10AC200004FB00BF5824002082B00190019B1B78D8
:10AC30001AB2019B01331B781B021BB213431BB2D8
:10AC40009BB2184602B07047AADF704700BF184693
:10AC5000ABDF704700BF184600B585B00190019882
:10AC6000FFF7E2FF0346ADF80E30BDF80E3003F0FB
:10AC70000103002B14BF01230023DBB2184605B0EB
:10AC80005DF804FB00B585B001900198FFF7CCFF9B
:10AC90000346ADF80E30BDF80E3003F00203002B72
:10ACA00014BF01230023DBB2184605B05DF804FB96
:10ACB00000B585B00190009100238DF80F309DF80C
:10ACC0000F305A1C8DF80F201A46019B1344009A2E
:10ACD00012781A709DF80F305A1C8DF80F201A4602
:10ACE000019B1344009A52781A709DF80F30022B82
:10ACF0000CBF01230023DBB20293029B002B04D183
:10AD0000054A4721002019F03FFB9DF80F301846F7
:10AD100005B05DF804FB00BF1066040000B583B009
:10AD20000190009100981BF064FA03469AB2019BCF
:10AD30001A80019B009A5A6000BF03B05DF804FBC3
:10AD400082B0034600918DF80730009A13786FF3B4
:10AD500003031370009A13786FF3071313709DF8B1
:10AD60000730052B5BD801A252F823F085AD020015
:10AD70009BAD0200B5AD0200CFAD0200E9AD02000F
:10AD800003AE0200009A13786FF303031370009A66
:10AD900013786FF30713137040E0009A13780121C2
:10ADA00061F303031370009A1378012161F3071311
:10ADB000137033E0009A1378012161F303031370D9
:10ADC000009A1378022161F30713137026E0009AAA
:10ADD0001378012161F303031370009A13780321A0
:10ADE00061F30713137019E0009A1378022161F3DD
:10ADF00003031370009A1378012161F30713137092
:10AE00000CE0009A1378022161F303031370009A97
:10AE10001378022161F30713137000BF00BF00BF56
:10AE200002B0704700B595B0034602910192ADF8AB
:10AE30000E30029B9B78002B03D101238DF81E302E
:10AE400003E0029B9B788DF81E30029B1B88ADF8B7
:10AE50001C3006AB0322002118461BF075F9029B3B
:10AE60005B7C06AA11461846FFF76AFF029B9A7C94
:10AE700006AB013319461046FFF762FF029BDA7BEF
:10AE80009DF81A3062F3C3038DF81A30029B1A7CC6
:10AE90009DF81A3062F304138DF81A30029B1A7B66
:10AEA0009DF81A3062F300038DF81A30029B1B7D67
:10AEB000002B01D0022200E001229DF81A3062F33B
:10AEC00042038DF81A300DAB1C22002118461BF0EE
:10AED0003BF9029B5B7B03F01003DBB2002B06D136
:10AEE000029B5B7B03F02003DBB2002B24D004AB7E
:10AEF0000322002118461BF027F9029BDA7C04ABE1
:10AF0000013319461046FFF71BFF9DF81030012250
:10AF100062F303038DF810309DF81030012262F3C4
:10AF200007138DF810309DF81230012262F34203AE
:10AF30008DF8123004AB1293029B5B7B8DF834309A
:10AF4000029B9B7B8DF8353008AB142200211846FC
:10AF50001BF0FAF807AB089306AB0993029B9B889A
:10AF6000ADF82C30029B9B68002B06D0029BDB883F
:10AF7000ADF82830029B9B680C93029B9B69002BC9
:10AF80004FD005AB0322002118461BF0DDF8029BD1
:10AF90009B691B88ADF83C30029B9B695B88ADF8D0
:10AFA0003E30029B9B695B680E9305AB1193029B3D
:10AFB0009B691B7B05AA11461846FFF7C1FE029B41
:10AFC0009B695A7B05AB013319461046FFF7B8FE63
:10AFD000029B9B699A7A9DF8163062F3C3038DF841
:10AFE0001630029B9B69DA7A9DF8163062F30413DF
:10AFF0008DF81630029B9B691A7A9DF8163062F321
:10B0000000038DF81630029B9B699B7B002B01D0BF
:10B01000022200E001229DF8163062F342038DF80F
:10B020001630029BDB69002B02D0029BDB69109378
:10B0300008AA0DA9BDF80E00019BFFF705FE034607
:10B04000184615B05DF804FB00B58DB003460291BB
:10B050000192ADF80E3007AB1422002118461BF008
:10B0600073F8029B9B78002B03D101238DF81A30D3
:10B0700003E0029B9B788DF81A30029B1B88ADF889
:10B08000183006AB0793029B9B7905AA1146184618
:10B09000FFF756FE029BDA7905AB013319461046DD
:10B0A000FFF74EFE029BDA789DF8163062F3C30379
:10B0B0008DF81630029B1A799DF8163062F304134E
:10B0C0008DF81630029B5A799DF8163062F3000312
:10B0D0008DF81630029B1B7A002B01D0022200E073
:10B0E00001229DF8163062F342038DF8163005AB4D
:10B0F0000893029B5B89ADF82430029B9B89ADF8D5
:10B100002630029BDB89ADF82830029B1B690B932C
:10B1100007A9BDF80E30019A1846FFF799FD0346BE
:10B1200018460DB05DF804FB90DF704700BF18466D
:10B13000A5DF704700BF1846B5DF704700BF18464F
:10B1400082B00190019B17221A80019B17225A801E
:10B15000019B00221A71019B00225A71019B1B2244
:10B160009A71019B1B22DA7100BF02B07047000088
:10B1700030B589B003460A46ADF806301346ADF83F
:10B180000430BDF80430ADF81430BDF80430ADF82B
:10B1900016300023ADF818300023ADF81A3003AB99
:10B1A00000221A609A8003AA05A9BDF80630184645
:10B1B000FFF7BAFF0790079B002B39D01E4A1F4BA1
:10B1C000D31ADB081B0443F00104BDF806500798AE
:10B1D00018F0D6F803462A46194920460AF0E5FF3A
:10B1E000BDF80C30002B03D1BDF80E30002B0ED073
:10B1F000114A124BD31ADB081B0443F00100BDF8BF
:10B200000C301A46BDF80E300E490AF0CEFFBDF8DC
:10B210001030002B0CD0084A084BD31ADB081B0453
:10B2200043F00103BDF81020074918460AF0ACFFAF
:10B23000079B184609B030BDA463040044630400B2
:10B2400084660400D06604001067040010B586B060
:10B2500001900091009B9B88ADF80E30BDF80E3038
:10B26000DB00019A134406330593019B1A79059B71
:10B270009A71009BDB7B012B02D0022B05D009E0E9
:10B28000019B1A88059B1A8004E0019B5A88059B44
:10B290001A8000BF059B1A88059B5B889A4226D9B5
:10B2A000059B1A88BDF80E3011461846FFF740FF7F
:10B2B0000490049B002B03D1059B01225A7116E0D8
:10B2C000049B112B03D1059B01221A710FE0114A37
:10B2D000114BD31ADB081B0443F00104049818F047
:10B2E0004FF803461A460D4920460AF04DFF059BCC
:10B2F0009A79059BDB799A4208D9059B9B799AB28A
:10B30000BDF80E3011461846FFF732FF00BF06B0F9
:10B3100010BD00BFA4630400446304006867040018
:10B3200000B583B001900091009B9B88DB00019ADF
:10B33000134406331846FFF703FF00BF03B05DF860
:10B3400004FB00B587B001900091009B9B88ADF88D
:10B350001630009B5B89ADF81430BDF81630DB0069
:10B36000019A134406330493049B1B88BDF81420F0
:10B37000934228BF13469AB2049B5A80049B5B8871
:10B38000172B38BF17239AB2049B5A80019B1B6965
:10B39000002B15D0049B5B79002B11D040F677234E
:10B3A000ADF80830BDF81630ADF80A30049B5B8864
:10B3B000ADF80C30019B1B6902AA11460198984711
:10B3C000049B00225A71049B00221A7100BF07B02F
:10B3D0005DF804FB10B588B001900091009B9B883C
:10B3E000ADF81A30009BDB88ADF81830BDF81A3084
:10B3F000DB00019A134406330593BDF81830172B70
:10B4000038BF1723ADF81830059B1B88BDF81820EE
:10B41000934228BF13469AB2059B5A80059B00228F
:10B420001A71059B1A88BDF81A3011461846FFF7A5
:10B4300083FE0790079B002B0FD0174A174BD31A98
:10B44000DB081B0443F00104079817F099FF03463B
:10B450001A46134920460AF097FE059B5B79002B9C
:10B4600016D1019B1B69002B13D040F67723ADF852
:10B470000C30BDF81A30ADF80E30059B5B88ADF886
:10B480001030019B1B6903AA11460198984700E000
:10B4900000BF08B010BD00BFA463040044630400F3
:10B4A0009C67040030B591B001900091009B04AC02
:10B4B0001D1D0FCD0FC40FCD0FC495E8070084E804
:10B4C0000700BDF81030ADF83E30BDF81420BDF8CF
:10B4D0003E30D1B2019ADB0013440A465A73019BF5
:10B4E0001B69002B19D002AB00221A609A804DF61E
:10B4F0007A23ADF80830BDF83E30ADF80A30BDF81B
:10B500003E30019ADB0013445B7B8DF80C30019BCD
:10B510001B6902AA11460198984700BF11B030BDBF
:10B5200000B587B001900091009B04330593059B03
:10B530001B88DB00019A134406330493059B9B8808
:10B540008DF80F30049B9B799DF80F20934228BF04
:10B5500013468DF80E30059B1B889DF80E2092B285
:10B5600011461846FFF704FE00BF07B05DF804FB64
:10B5700000B585B001900091019B002B01D10E23F5
:10B580001DE0019B009A1A61019B17221A80019B02
:10B5900017225A80019B1B221A71002303930AE091
:10B5A000039BDB00019A134406331846FFF7C8FDDE
:10B5B000039B01330393039B002BF1D00023184618
:10B5C00005B05DF804FB000010B586B00190009155
:10B5D000009B0593019B9B88ADF81230BDF812309B
:10B5E000002B40F09880019B1B88552B48D0552B91
:10B5F00055DC242B32DC102B51DB103B142B4ED8A6
:10B6000001A252F823F000BF63B602006DB602003B
:10B610009FB602009FB602009FB602009FB60200CE
:10B620009FB602009FB602009FB602009FB60200BE
:10B630009FB602009FB602009FB602009FB60200AE
:10B640009FB602009FB602009FB602009FB602009E
:10B650009FB6020095B602008BB602003A2B0AD0C4
:10B660001DE001990598FFF7F1FD19E00199059892
:10B67000FFF756FE14E001990598FFF762FE0FE010
:10B6800001990598FFF7A6FE0AE001990598FFF7D2
:10B6900009FF05E001990598FFF742FF00E000BFB0
:10B6A000BDF81230059ADB0013449B7A002B33D08F
:10B6B000BDF81230059ADB001344DA88BDF8123069
:10B6C00011461846FFF734FD0390039B002B0ED163
:10B6D000BDF81230059ADB00134400229A72BDF8BF
:10B6E0001230059ADB0013440122DA7214E0039B46
:10B6F000112B11D0094A0A4BD31ADB081B0443F063
:10B700000104039817F03CFE03461A4605492046FB
:10B710000AF03AFD00E000BF06B010BDA4630400CB
:10B720004463040068670400B0DF704700BF184638
:10B7300066DF704700BF184682B001900091019B00
:10B74000002B01D10E2316E0009B002B01D10E230C
:10B7500011E0019B1B78DE2B01D108230BE0009B3D
:10B760001A68019B5A60019BDE221A70019B4FF6FA
:10B77000FF725A800023184602B0704782B00190D1
:10B780000B46ADF80230019B002B01D10E230AE0DD
:10B79000019B1B78DE2B01D0082304E0019BBDF840
:10B7A00002205A800023184602B0704700B585B0C9
:10B7B0000190019B1B7A002B18D0019B5B88002114
:10B7C0001846FFF7B5FF0390039B002B03D1019BA5
:10B7D00000221A720AE0039B112B03D1019B012264
:10B7E0001A7203E0019B5B680398984700BF05B09D
:10B7F0005DF804FB00B583B001900091009B1B79BC
:10B80000012B0BD1009B1A88019B5B889A4205D1C2
:10B81000019B01221A720198FFF7C8FF00BF03B015
:10B820005DF804FB82B00190009100BF02B0704748
:10B8300000B589B001900091009B1A88019B5B883C
:10B840009A4236D1009B02330793079B1B78022B49
:10B8500031D1079B1B7A042B07D0079B1B7A062B41
:10B8600003D0079B1B7A052B27D102AB00221A605D
:10B870005A609A60DA6002238DF808304FF4C07382
:10B88000ADF80C30079B1B7A052B02D10023ADF8D5
:10B890000C30009B1B8802AA11461846FFF744FF94
:10B8A0000690069B002B09D0019B5B680698984781
:10B8B00004E000BF02E000BF00E000BF09B05DF897
:10B8C00004FB00B585B001900091009B002B40D097
:10B8D000019B002B3FD0009B0393039B1B78DE2B27
:10B8E0003BD1019B9A88039B5B889A4202D10398C3
:10B8F000FFF75CFF019B1B88512B18D0512B2EDCCE
:10B90000112B1BD0112B2ADC012B02D0022B07D0CC
:10B9100025E0019B043319460398FFF76BFF21E0F4
:10B92000019B043319460398FFF77CFF1AE0019B43
:10B93000043319460398FFF77BFF13E0019B9A88B5
:10B94000039B5B889A420CD1039B4FF6FF725A808F
:10B9500007E000BF06E000BF04E000BF02E000BF58
:10B9600000E000BF05B05DF804FB000000B585B045
:10B9700001900023039305E0064B01989847039B31
:10B9800001330393039B002BF6D000BF00BF05B02B
:10B990005DF804FB89FB020000B585B00346009109
:10B9A000ADF8063013468DF8053000238DF80F30C2
:10B9B000009B112B03D101238DF80F3002E00023EF
:10B9C0008DF80F309DF80530002B11D00F4B1978F2
:10B9D0009DF80F20BDF806301846FFF79FF80C4B76
:10B9E0001978BDF8063000221846FFF797F808E0EE
:10B9F000074B19789DF80F20BDF806301846FFF761
:10BA00008DF800BF05B05DF804FB00BF7B2200206D
:10BA10007822002030B589B001900B468DF80330B4
:10BA20001346ADF8003003AB00221A605A609A60EA
:10BA3000DA601A619DF803308DF80C30BDF80030E3
:10BA4000ADF80E30BDF80030184601F0F7FF0346A0
:10BA5000ADF81030019B1D4603AC0FCC0FC5236819
:10BA60002B60019809B030BD00B589B00346009144
:10BA7000ADF8063003ABBDF8062007211846FFF7E6
:10BA8000C9FF009B059303AB1846FFF76FFF00BF8C
:10BA900009B05DF804FB00B587B00346ADF8063089
:10BAA00003AABDF806300721184603F097FC05905D
:10BAB000059B002B09D1049B93F8443003F001034C
:10BAC000DBB2002B01D0012300E0002303F00103CF
:10BAD000DBB2184607B05DF804FB000010B58AB071
:10BAE000034602910192ADF80E30029B002B4FD01D
:10BAF000029B112B4CD0029B082B49D0029B0D2B93
:10BB00002ED1254A254BD31ADB081B0443F0020330
:10BB1000BDF80E20224918460AF036FB05ABBDF8E9
:10BB20000E2003211846FFF775FF019B002B08D05C
:10BB3000019B1B7803F00103DBB2002B01D0012332
:10BB400000E002238DF81C3000238DF8203041F2F4
:10BB50000113ADF81E3005AB1846FFF707FF17E0DD
:10BB60000D4A0E4BD31ADB081B0443F00104029864
:10BB700017F006FC03461A46BDF80E300949204668
:10BB80000AF013FBBDF80E3002991846FFF76CFF60
:10BB900000BF0AB010BD00BF1C6404004463040071
:10BBA000DC6704009468040000B58BB00346029182
:10BBB0000192ADF80E3005ABBDF80E2005211846F8
:10BBC000FFF728FF029B0793019B089305AB1846DC
:10BBD000FFF7CCFE00BF0BB05DF804FB10B487B0DC
:10BBE000019003AB00221A605A609A60074B1B68F1
:10BBF0000393019B1C4603AB93E8070084E807000E
:10BC0000019807B05DF8044B704700BFE0240020A6
:10BC100010B588B00446084611461A462346ADF8CA
:10BC2000063003468DF805300B468DF80430134678
:10BC30008DF803309DF80530002B02D000230693C9
:10BC40001CE002AB1846FFF7C9FF02AABDF8063098
:10BC500000211846FFF7A8FF029B0693474B1B786D
:10BC600083F00103DBB2002B08D09DF8113083F084
:10BC70000103DBB2002B01D005237CE09DF80420FA
:10BC8000BDF806300699184606F006F80590BDF88E
:10BC90000630002205991846FFF77EFE059B112B02
:10BCA0002AD8059B112B45D801A252F823F000BFDA
:10BCB0002FBD020035BD020035BD020035BD0200BA
:10BCC00035BD020035BD020035BD020035BD0200A4
:10BCD0002FBD020035BD020035BD02002FBD0200A0
:10BCE00035BD02002FBD020035BD020035BD02008A
:10BCF00035BD020005BD0200059B43F202029342DE
:10BD000015D017E01E4B19789DF80520BDF80630B8
:10BD10001846FEF703FF1B4B19789DF80420BDF869
:10BD200006301846FEF7FAFE0023079317E0059B3E
:10BD3000079314E0144A154BD31ADB081B0443F095
:10BD40000104059817F01CFB03461A46BDF806309F
:10BD50000F4920460AF029FA0323079300BF9DF8F4
:10BD60000330002B06D0BDF80630069A0599184618
:10BD7000FFF7B4FE079B184608B010BDE42400206E
:10BD80007A220020792200201C640400446304000D
:10BD90000069040000B589B003460091ADF8063093
:10BDA00003AB1846FFF71AFF03AABDF80630009947
:10BDB0001846FFF7F9FE02F0D7F807900399BDF88F
:10BDC0000630079A184605F09FFE0690BDF806302B
:10BDD000012206991846FFF7DFFD039ABDF80630E9
:10BDE00006991846FFF77AFE00BF09B05DF804FB1C
:10BDF00000B583B00190019B5A88019B9B6819464E
:10BE00001046FFF7C7FF00BF03B05DF804FB00B5A5
:10BE100085B003460091ADF80630009B002B01D1A0
:10BE20000E236CE0BDF806301846FEF7A5FD03466C
:10BE30008DF80F309DF80F30002B02D143F2020332
:10BE40005DE0BDF80630184601F0F8FD0346ADF898
:10BE50000C309DF80F30022B0CBF01230023D9B208
:10BE6000009A137861F300031370BDF80C304FF69D
:10BE7000FF72934214BF01230023D9B2009A1378B2
:10BE800061F3C3031370BDF806301846FEF79EFD3C
:10BE900003461946009A137861F341031370BDF805
:10BEA00006301846FEF7AEFD03461946009A137891
:10BEB00061F382031370BDF806301846FEF7BEFD2D
:10BEC0000346002B0FD1BDF806301846FEF77EFD65
:10BED0000346002B09D0BDF80C301846FFF7DBFDF8
:10BEE0000346002B01D0012300E0002303F00103EF
:10BEF000D9B2009A137861F3041313700023184623
:10BF000005B05DF804FB00B585B003460091ADF8BF
:10BF1000063000238DF808309DF8083043F0E00328
:10BF20008DF8083002AABDF8063011461846FFF712
:10BF30006EFF039002AB1B785BB2DB435AB2009BEF
:10BF40001B785BB213405BB28DF80B30039B002B68
:10BF500005D19DF80B30002B01D1012300E0002317
:10BF600003F00103DBB2184605B05DF804FB0000E6
:10BF700000B587B0019000238DF8173000238DF8AD
:10BF800016302D4B1B68002B03D101238DF8173081
:10BF900043E0019B5B881846FEF718FD0346002B23
:10BFA0003BD000238DF80C30019B1B7AC3F3400378
:10BFB000DAB29DF80C3062F382038DF80C30019BED
:10BFC0001B7AC3F30003DAB29DF80C3062F3C303AB
:10BFD0008DF80C30019B1B7AC3F38003DAB29DF815
:10BFE0000C3062F304138DF80C30019B5B8803AABC
:10BFF00011461846FFF787FF0346002B14BF0123A5
:10C000000023DBB283F00103DBB28DF816309DF81C
:10C01000163003F001038DF81630019B58889DF807
:10C0200016209DF817100123FFF7F2FD049000BFC2
:10C0300007B05DF804FB00BFE024002000B583B02A
:10C0400001900198FFF792FC00BF03B05DF804FB7C
:10C0500000B583B00190019B1B78052B02D0122BF9
:10C0600004D006E00198FFF7C3FE06E00198FFF751
:10C070007FFF0198FFF7E2FF00BF00BF03B05DF84C
:10C0800004FB00B583B003460091ADF80630BDF85F
:10C09000063000211846FFF77DFE00BF03B05DF8B3
:10C0A00004FB000000B585B003460091ADF80630F2
:10C0B000114B1A78BDF8063011461846FEF7FEFC03
:10C0C00003468DF80F300D4B1A78BDF80630114637
:10C0D0001846FEF7F3FC03468DF80E309DF80F204E
:10C0E0009DF80E10BDF806000123FFF791FD0290A8
:10C0F00000BF05B05DF804FB792200207A22002001
:10C1000000B583B00190019B1B780B2B02DC082B40
:10C1100002DA10E0132B0ED1094B1B7800220949DB
:10C120001846FEF759FD084B1B78002207491846B0
:10C13000FEF752FD00E000BF00BF03B05DF804FB56
:10C140007B22002083C0020078220020A5C00200CC
:10C1500000B583B00190019B1B78182B05D1FEF729
:10C1600099FC03461A46019B1A7000BF03B05DF8A4
:10C1700004FB000000B583B001F036FE0190019B86
:10C18000002B01D0019B20E01248FFF7E1FF12488D
:10C19000FFF7DEFF1148FFF7DBFF1148FFF7D8FF7D
:10C1A0000F4B1B78182B0CD10E4A0F4BD31ADB0800
:10C1B0001B0443F001030D49184609F0D7FF032380
:10C1C00003E00B4B01221A700023184603B05DF800
:10C1D00004FB00BF78220020792200207A22002070
:10C1E0007B2200201C64040044630400586904009E
:10C1F000D424002000B583B00190019805F070FDB3
:10C20000019802F04FF8094B1B78002208491846A4
:10C21000FEF7E2FC074B1B78002207491846FEF7A1
:10C22000DBFC00BF03B05DF804FB00BF7B220020F5
:10C2300083C0020078220020A5C0020082B00190D5
:10C24000019B002B01D10023AEE0019B1B7803F082
:10C250000203DBB2002B08D1019B1B7823F07F0384
:10C26000DBB2002B01D000239EE0019B1B78C3F3BF
:10C270000213DBB2042B01D9002395E0019B1B784C
:10C2800003F00203DBB2002B0FD0019B1B7803F0FD
:10C290007003DBB2302B08D1019B1B7823F07F03A6
:10C2A000DBB2002B01D100237EE0019B5A78019B79
:10C2B0009B789A4201D9002376E0019B5B78062B9C
:10C2C00001D8002370E0019B9B78102B01D900233B
:10C2D0006AE0019BDB7803F00403DBB2002B06D19C
:10C2E000019B1B7903F00403DBB2002B01D0002378
:10C2F0005AE0019BDB7803F00803DBB2002B06D188
:10C30000019B1B7903F00803DBB2002B01D0002353
:10C310004AE0019B1B7803F00103DBB2002B1DD127
:10C32000019BDB7803F00103DBB2002B14D1019BEE
:10C33000DB7803F00203DBB2002B0DD1019B1B79EC
:10C3400003F00103DBB2002B06D1019B1B7903F044
:10C350000203DBB2002B01D0002325E0019B1B78F8
:10C3600003F00103DBB2002B1DD0019BDB7803F04F
:10C370000103DBB2002B16D1019BDB7803F0020333
:10C38000DBB2002B0FD1019B1B7903F00103DBB261
:10C39000002B08D1019B1B7903F00203DBB2002BB9
:10C3A00001D1002300E00123184602B070470000CD
:10C3B00000B583B00190019B002B07D1104B0022E8
:10C3C0001A60104B01221A70002314E00198FFF745
:10C3D00035FF0346002B0DD00B4B019A10681860F7
:10C3E00012791A71064B084A1A60064B01221A701C
:10C3F000002300E00723184603B05DF804FB00BFEC
:10C40000E0240020E4240020D824002000B585B0DA
:10C4100003460A46ADF8063013468DF805309DF800
:10C420000520BDF8060000230021FFF7F1FB039073
:10C43000039B184605B05DF804FBA0DF704700BF02
:10C440001846A1DF704700BF1846ADDF704700BF38
:10C450001846B3DF704700BF1846B4DF704700BF0F
:10C460001846000000B583B00190019B002B03D15A
:10C470000649722018F006FD019B00221A60BFF3E6
:10C480005F8F00BF00BF03B05DF804FBC869040004
:10C4900000B585B00190019B002B03D10A4985208E
:10C4A00018F0F0FC0121019813F096F90390BFF306
:10C4B0005F8F00BF039B002B0CBF01230023DBB267
:10C4C000184605B05DF804FBC869040000B583B0E8
:10C4D0000190019B002B03D10A49922018F0D2FC55
:10C4E000019B1B68012B03D00649932018F0CAFC5E
:10C4F000BFF35F8F00BF019B00221A6000BF03B033
:10C500005DF804FBC8690400024B00221A7000BFEA
:10C51000704700BFE524002000B585B00190019B65
:10C520005B88184601F08AFA03461A46019B9A80F6
:10C530000023039308E0084A039B52F82330019834
:10C540009847039B01330393039B002BF3D000BF59
:10C5500000BF05B05DF804FB7C22002082B0019092
:10C56000019B9B79012B0BD1019B1B79012B07D1DF
:10C57000019B5B8842F60212934201D1012300E045
:10C58000002303F00103DBB2184602B0704700B588
:10C5900089B003460091ADF8063003AB00221A6063
:10C5A0005A609A60DA601A6107238DF80C30BDF882
:10C5B0000630ADF80E30009B059303AB1846FFF72D
:10C5C000ABFF00BF09B05DF804FB000010B58AB0F6
:10C5D0000346ADF8063000238DF8273003AB002268
:10C5E0001A605A609A60DA601A61BDF80630ADF8D8
:10C5F0000E30BDF806304FF6FF72934261D0BDF8A1
:10C600000630184600F064FF0890089B43F20202CF
:10C6100093424BD0089B43F2020293422DD8089BD1
:10C62000112B11D0089B112B27D8089B002B03D06E
:10C63000089B0B2B0CD020E00E238DF80C3003ABA5
:10C640001846FFF769FF32E001238DF827302EE00E
:10C650000F238DF80C301C4A1C4BD31ADB081B042B
:10C6600043F00203BDF806201949184609F08CFD75
:10C6700003AB1846FFF750FF19E0134A134BD31AC8
:10C68000DB081B0443F00104089816F079FE03460A
:10C690001A46BDF806300F49204609F086FDBDF860
:10C6A000063008991846FFF772FF00E000BF0A4BFA
:10C6B00019789DF82720BDF806301846FEF72EFAA7
:10C6C00000E000BF0AB010BDEC6304004463040046
:10C6D0003C6A0400BC6A0400ED24002000B583B06D
:10C6E00003460A46ADF8063013468DF80530064B72
:10C6F00019789DF80520BDF806301846FEF70EFAA9
:10C7000000BF03B05DF804FBEC24002010B58AB034
:10C710000346ADF8063000238DF8273000238DF84E
:10C720002630BDF80630184600F048FE0890089BF9
:10C7300043F20202934252D0089B43F20202934218
:10C7400034D8089B862B11D0089B862B2ED8089BAB
:10C75000002B03D0089B112B04D027E001238DF878
:10C7600026303DE001238DF8273039E003AB00226D
:10C770001A605A609A60DA601A6106238DF80C30EC
:10C78000BDF80630ADF80E301C4A1D4BD31ADB083D
:10C790001B0443F00203BDF806201A49184609F0AD
:10C7A000F3FC03AB1846FFF7B7FE19E0134A144B2E
:10C7B000D31ADB081B0443F00104089816F0E0FDCF
:10C7C00003461A46BDF806300F49204609F0EDFC35
:10C7D000BDF8063008991846FFF7D9FE00E000BF03
:10C7E0009DF82720BDF8063011461846FFF776FF62
:10C7F0009DF8263018460AB010BD00BFEC63040057
:10C8000044630400106B0400486B040000B589B059
:10C8100003460091ADF8063000238DF81F300DF16E
:10C8200016031846FFF715FE0690069B002B04D052
:10C830002A494FF4987018F025FB0123ADF81C30FD
:10C8400040E00223ADF808300023ADF80A3004AB15
:10C85000039304A9BDF81C3000221846FFF7FDFD24
:10C860000690069B002B01D0069B32E09DF81F30FE
:10C8700083F00103DBB2002B09D0BDF8103042F683
:10C880000522934203D101238DF81F3015E09DF856
:10C890001F30002B11D0BDF8103042F60212934227
:10C8A0000BD1009B039302AABDF81C10BDF8063003
:10C8B0001846FFF7CAFD03460BE0BDF81C300133F4
:10C8C000ADF81C30BDF81630BDF81C209A42B8D324
:10C8D0000523184609B05DF804FB00BF886B04000F
:10C8E00010B58AB00346ADF8063001238DF8273025
:10C8F00000238DF82630BDF80630184600F098FE6B
:10C900000890089B43F2014293426AD0089B43F28D
:10C91000014293426BD8089B112B29D8089B112BFD
:10C9200065D801A252F823F07DC90200EFC90200C8
:10C93000EFC90200EFC90200EFC90200EFC902000F
:10C94000C9C90200EFC90200A9C90200EFC902006B
:10C95000EFC90200EFC90200EFC90200EFC90200EF
:10C96000EFC90200EFC90200EFC9020021CA0200AC
:10C97000089B43F20202934254D038E003AB0022FA
:10C980001A605A609A60DA601A6110238DF80C30D0
:10C99000BDF80630ADF80E3001238DF8263003AB1C
:10C9A0001846FFF7B9FD3EE00DF10A02BDF806306A
:10C9B00011461846FFF72AFF0890089B002B03D169
:10C9C000BDF80A30002B2ED100238DF82730BDF89A
:10C9D0000630184601F032F80346184600F070FEA3
:10C9E00021E0BDF806301846FFF7F0FD1BE0184ABD
:10C9F000184BD31ADB081B0443F00104089816F007
:10CA0000BFFC03461A46BDF806301349204609F01C
:10CA1000CCFBBDF8063008991846FFF7B8FD02E0D8
:10CA200000BF00E000BF0D4B19789DF82720BDF82E
:10CA300006301846FEF772F8094B19789DF8262043
:10CA4000BDF806301846FEF769F800BF0AB010BD01
:10CA5000EC63040044630400F46B0400EE24002043
:10CA6000EF24002000B583B003460091ADF80630F6
:10CA7000BDF806301846FFF7A9FD00BF03B05DF80A
:10CA800004FB000008B5044B1B780022034918463C
:10CA9000FEF7A2F800BF08BDED24002065CA020021
:10CAA00000B583B003460091ADF806300A48FFF7A1
:10CAB000EFFC0346002B0CD0BDF806301846FFF7FC
:10CAC00025FE0346002B03D10348FFF7FFFC00E0DF
:10CAD00000BF03B05DF804FBE824002000B583B07C
